:1000000038EF02F00000000000EF00F000000000F8
:0A0010000000000000000000F3D71C
:08001C000AAE029E000E120064
:100024000B840BAE1DEF00F0010E036E026A016A31
:0A003400006A0A360232FF0E1200C5
:0E003E00026A016A006A086A036A000E120074
:10004C000B800BAE32EF00F0026A0AAEFF0E026EAE
:0C005C00016E006E0A360232FF0E120028
:100068000C6A0E6A0250D8A44DEF00F001C002F0ED
:1000780000C001F0006A0E860250D8A44DEF00F0CF
:1000880001C002F0016A0E960E880250D8B45FEFE4
:1000980000F00E50035ED8A4D8A064EF00F0D8900A
:1000A80002BE69EF00F0003601360236032E54EF27
:1000B80000F064EF00F0010E0C6EBDDF6CEF00F095
:1000C800020E0C6EABDF6CEF00F0040E0C6EA2DFBC
:0200D800120014
:1000DA000B6A0A6A096A00500402F4CF09F0F3CFE6
:1000EA0008F001500502F4CF0BF0F3CF0AF00050EC
:1000FA000502F3500926F4500A22E86A0B2201503D
:10010A000402F3500926F4500A22E86A0B2208C0B6
:10011A0000F009C001F00AC002F00BC003F012009F
:10012A000B820BAE9FEF00F003680268016800685B
:08013A000A360232FF0E12002A
:100142000B6A0C6A0A6A0350D8B4EBEF00F0028E15
:100152008E0E035E03BEB3EF00F0D8B4B3EF00F02F
:10016200EFEF00F0036C080E035CD8A0CAEF00F0BA
:10017200036E013602C001F0026A080E035CD8A0C9
:10018200CAEF00F00136016A0350D8A4D890D4EF28
:1001920000F00350D8B4D4EF00F0D890023201320C
:1001A200032ECEEF00F00BBC01A0E1EF00F0D8A0CF
:1001B200E1EF00F0012AD8B4022A02BEFEEF00F0FD
:1001C2000AAE03EF01F0021E011E012AD8B4022A70
:1001D20003EF01F0026A016A03EF01F00B800BAE3C
:1001E20007EF01F0026A0AAE07EF01F0FF0E026E9E
:1001F200016E0A36023207EF01F0010E0C6E25DFA6
:1002020009EF01F0000E0C6E09EF01F0FF0E0C6E0B
:0A0212000150006E0250016E120050
:10021C000900F5CFE6FF0006FBE10106F9E112004B
:10022C00CB50010F006E016A000E01221BC004F0BE
:10023C00000E056E4CDF060E026E00C004F001C00D
:10024C0005F0025005E005320432059EFF0FFAD787
:10025C00040E016E04C000F0015004E00036009062
:10026C00FF0FFBD7300E0014036E04C000F005C066
:10027C0001F001320032019E01320032019E00C0B9
:0C028C00BEFF0F0EBD160350BD12120085
:0A0298009494CA840C0EBD121200EB
:0802A200BE6ABD98BD9A12006E
:1002AA00CB50010F006E016A000E01221BC004F040
:1002BA00000E056E0DDF060E026E00C004F001C0CE
:1002CA0005F0025005E005320432059EFF0FFAD709
:1002DA00040E016E04C000F0015004E000360090E4
:1002EA00FF0FFBD7300E0014036E04C000F005C0E8
:1002FA0001F001320032019E01320032019E00C03B
:0C030A00BBFF0F0EBA160350BA1212000F
:100316000050086E0150006E016A026A036A0B6A99
:100326000C6A960E036E0A6A00C001F008C000F05F
:08033600086A026A96DE12005B
:10033E00086A096A000E0762036424EF02F0025095
:10034E0006180A6E075003267E0ED8A0B5EF01F0F0
:10035E00035ED8B028EF02F0B9EF01F0035ED8A02B
:10036E002CEF02F0028E068E02C00EF001C00BF0D2
:10037E0000C00DF000500402F4CF0CF00150050245
:10038E00F4CF00F0F3CF08F00402F3500C26F45033
:10039E000822000E00220D500502F3500C26F450D8
:1003AE000822000E002202500402F3500826F450D8
:1003BE00002202500502016A000E0122F3500026AF
:1003CE00F45001220D500602F3500826F45000227C
:1003DE00026A000E012202220B500602F350002682
:1003EE00F4500122000E02220E500602F350012696
:1003FE00F450022202BE0CEF02F00836003601362F
:10040E0002360306D8B42CEF02F01FEF02F0D880AC
:10041E00800E08640030000E002201220222D8A0B5
:10042E001FEF02F0023201320032034A28EF02F0CF
:10043E000AAE029E000E2EEF02F0010EF9DD2EEF37
:10044E0002F0020E6BDE2EEF02F0040EE4DD12005F
:08045E00BB6ABA98BA9A1200B9
:0A0466009492CA840C0EBA12120020
:10047000176A186A0E0EC16E950EC06ECA80CA92B7
:10048000F90ECB6E0EDF17C01BF0D0DE05DFCA8081
:10049000CA92F90ECB6EE3DF17C01BF006DFE3DF75
:1004A000010EC26EC282C2A201D0FDD7C4CF01F03C
:1004B000006AC3500024196E000E01201A6E19C084
:1004C00015F01AC016F019C000F01AC001F023DFB1
:1004D000D00E046E3F0E056E7F0E066E7C0E076E0C
:1004E0002EDF2FDE00C017F001C018F01A50010AED
:1004F00002E1FF0E191805E11B6A98DE1B6AD5DEC2
:100500001BD01650010802E11550FF080BE2800EC7
:10051000175C1B6E1B361B90050E1B5E87DE1B6A6D
:10052000C4DE0AD01B6A82DE175080081B6E1B36A1
:0C0530001B90050E1B5EB9DEB3D7FFD791
:020000040030CA
:0E000000000C1F1EFF8381FF0FC00FE00F409A
:00000001FF
