:1000000075EF00F00000000000EF00F000000000BD
:0A0010000000000000000000F3D71C
:10001C000B6A0A6A096A00500402F4CF09F0F3CFA4
:10002C0008F001500502F4CF0BF0F3CF0AF00050AA
:10003C000502F3500926F4500A22E86A0B220150FB
:10004C000402F3500926F4500A22E86A0B2208C075
:10005C0000F009C001F00AC002F00BC003F012005E
:0A006C009494CA840C0EBD12120019
:10007600CB50010F006E016A000E012216C004F07B
:10008600000E056EC8DF060E026E00C004F001C049
:1000960005F0025005E005320432059EFF0FFAD73F
:1000A600040E016E04C000F0015004E0003600901A
:1000B600FF0FFBD7300E0014036E04C000F005C01E
:1000C60001F001320032019E01320032019E00C071
:0C00D600BEFF0F0EBD160350BD1212003D
:0800E200BE6ABD98BD9A120030
:1000EA00CA80CA92F90ECB6EF7DF166ABFDFB9DF94
:1000FA00156A800E006E800E010A005C02E1000E95
:10010A00155C13E215C016F0B1DF030E0B6E8A0EF2
:10011A000C6E550E0D6E0D2EFED70C2EFCD70B2E27
:0C012A00FAD700000000152AE4D7FFD728
:020000040030CA
:0E000000000C1F1EFF8381FF0FC00FE00F409A
:00000001FF
