:1000000003EF04F00000000000EF00F0000000002B
:0A0010000000000000000000F3D71C
:0E001C00026A016A006A086A036A000E120096
:10002A000B820BAE1FEF00F00368026801680068DC
:08003A000A360232FF0E12002B
:080042000AAE029E000E12003E
:10004A000B840BAE30EF00F0010E036E026A016AF8
:0A005A00006A0A360232FF0E12009F
:100064000B6A0A6A096A00500402F4CF09F0F3CF5C
:1000740008F001500502F4CF0BF0F3CF0AF0005062
:100084000502F3500926F4500A22E86A0B220150B3
:100094000402F3500926F4500A22E86A0B2208C02D
:1000A40000F009C001F00AC002F00BC003F0120016
:1000B4000CB09CEF00F00CA242EF01F00E6A000EAF
:1000C4000264B3EF00F0F00E0214D8A47EEF00F047
:1000D400023A01380F0B02260138F00B016E00388A
:1000E4000F0B01260038F00B006E08380F0B0026AA
:1000F4000838F00B086E0E84D89002BE97EF00F01B
:1001040008360036013602360E2A02BE97EF00F09A
:1001140008360036013602360E2A02BE97EF00F08A
:1001240008360036013602360E2A0E50036438EFC4
:1001340001F0035E0BBC08AE3DEF01F0D880800EE9
:1001440008640030000E002201220222D8A03DEFF4
:1001540001F0023201320032034A42EF01F03DEF76
:1001640001F001C002F000C001F008C000F0086A0C
:10017400000E0E860264EAEF00F0F00E0214D8A41A
:10018400D2EF00F0023A01380F0B02260138F00BCF
:10019400016E00380F0B01260038F00B006E0E8440
:1001A400D89002BE97EF00F00036013602360E2AD0
:1001B40002BE97EF00F00036013602360E2A02BE68
:1001C40097EF00F00036013602360E2A97EF00F062
:1001D40001C002F000C001F0006A000E0E960E8805
:1001E400026417EF01F0F00E0214D8A402EF01F03C
:1001F400023A01380F0B02260138F00B016E0E840F
:10020400D89002BE97EF00F0013602360E2A02BEE5
:1002140097EF00F0013602360E2A02BE97EF00F087
:10022400013602360E2A97EF00F001C002F0016A8F
:10023400000E0E86026447EF01F0F00E0214D8A4FB
:1002440026EF01F0023A0E84D89002BE97EF00F038
:1002540002360E2A02BE97EF00F002360E2A02BEC4
:1002640097EF00F002360E2A97EF00F0010E0C6EA5
:10027400EADE4AEF01F0020E0C6EE1DE4AEF01F015
:10028400040E0C6ED0DE4AEF01F0080E0C6EC4DED4
:02029400120056
:100296000B800BAE57EF01F0026A0AAEFF0E026E3C
:0C02A600016E006E0A360232FF0E1200DC
:1002B200025006180E6E086A096A0B6A0350076438
:1002C2004CEF02F006500A6E068E028E03500B6E41
:1002D2000750036E000E0B649CEF01F00B50075E9B
:1002E200D8B43DEF02F0070E07640BEF02F0075E91
:1002F20000C008F001C000F002C001F0026A074E1F
:100302003DEF02F00764E0EF01F0075E00C008F085
:1003120001C000F0016A074E3DEF02F00764BEEF34
:1003220001F0075E00C008F0006A074E3DEF02F0E0
:100332000764A5EF01F00AC002F005C001F004C095
:1003420000F0086A66EF03F0030E0764B0EF01F0F5
:10035200075E08380F0B086E074E3DEF02F0D8908B
:100362000832074E3DEF02F0D8900832074E3DEFBB
:1003720002F0D89008323DEF02F0030E0764CFEF8F
:1003820001F0075E08380F0B086E0038F00B0826E4
:1003920000380F0B006E074E3DEF02F0D89000328E
:1003A2000832074E3DEF02F0D89000320832074E75
:1003B2003DEF02F0D890003208323DEF02F0030E1A
:1003C2000764F7EF01F0075E08380F0B086E00387C
:1003D200F00B082600380F0B006E0138F00B0026D8
:1003E20001380F0B016E074E3DEF02F0D89001323B
:1003F20000320832074E3DEF02F0D890013200324F
:100402000832074E3DEF02F0D89001320032083236
:100412003DEF02F0030E076428EF02F0075E083892
:100422000F0B086E0038F00B082600380F0B006E19
:100432000138F00B002601380F0B016E0238F00B69
:10044200012602380F0B026E074E3DEF02F0D890E4
:100452000232013200320832074E3DEF02F0D890EC
:100462000232013200320832074E3DEF02F0D890DC
:100472000232013200320832096A000E0EAE31EF4A
:1004820003F0081E001E011E021E082A002201227D
:10049200022231EF03F00750D8A452EF02F066EFC8
:1004A20003F0096A02C00AF0028E068E0750035C4E
:1004B200076ED8B424EF03F0070E0764F2EF02F0E0
:1004C200075E0450096E0550046E0650056E066AFA
:1004D200074E24EF03F0070E0764C7EF02F0075E32
:1004E2000450096E0550046E056A074E24EF03F0AE
:1004F200070E0764A5EF02F0075E0450096E046A56
:10050200074E24EF03F0070E07648CEF02F00AC0D7
:1005120002F066EF03F0030E076497EF02F0075E46
:1005220009380F0B096E074E24EF03F0D8900932F9
:10053200074E24EF03F0D8900932074E24EF03F060
:10054200D890093224EF03F0030E0764B6EF02F0ED
:10055200075E09380F0B096E0438F00B09260438C0
:100562000F0B046E074E24EF03F0D89004320932C9
:10057200074E24EF03F0D89004320932074E24EFDD
:1005820003F0D8900432093224EF03F0030E07641B
:10059200DEEF02F0075E09380F0B096E0438F00B2C
:1005A200092604380F0B046E0538F00B04260538B3
:1005B2000F0B056E074E24EF03F0D890053204327C
:1005C2000932074E24EF03F0D89005320432093283
:1005D200074E24EF03F0D89005320432093224EF9B
:1005E20003F0030E07640FEF03F0075E09380F0BE9
:1005F200096E0438F00B092604380F0B046E053817
:10060200F00B042605380F0B056E0638F00B052695
:1006120006380F0B066E074E24EF03F0D890063211
:10062200053204320932074E24EF03F0D890063225
:10063200053204320932074E24EF03F0D890063215
:10064200053204320932086A000E0EAE31EF03F0B1
:10065200091E041E051E061E092A04220522062260
:100662000950082604500022055001220650022299
:100672000EBE48EF03F0D8A057EF03F0023201326A
:1006820000320832033E57EF03F061EF03F0D8B0B7
:100692005CEF03F0000E081E001E011E021E082A57
:1006A2000022012202220A7E5CEF03F0010E0C6E90
:1006B20000DD68EF03F0020E0C6EFBDC68EF03F066
:1006C200040E0C6EB1DC68EF03F0000E0C6E12002B
:1006D200CB50010F006E016A000E012216C004F019
:1006E200000E056EBEDC060E026E00C004F001C0F4
:1006F20005F0025005E005320432059EFF0FFAD7DD
:10070200040E016E04C000F0015004E000360090B7
:10071200FF0FFBD7300E0014036E04C000F005C0BB
:1007220001F001320032019E01320032019E00C00E
:0C073200BEFF0F0EBD160350BD121200DA
:08073E00BE6ABD98BD9A1200CD
:100746000B6A0C6A0A6A0350D8B4D8EF03F00A9E03
:10075600028E860E035E03BEB6EF03F0D8B4B6EF84
:1007660003F0DBEF03F0036C080E035CD8A0C4EFC4
:1007760003F0036E0236026A0350D8A4D890CDEF78
:1007860003F00350D8B4CDEF03F0D8900232032E15
:10079600C8EF03F00BBC02A0D8EF03F0D8A0D8EF47
:1007A60003F0022AD8B4E2EF03F0016AE7EF03F0A0
:1007B6000B800BAEEBEF03F0016AEBEF03F0010EDB
:1007C6000C6E66DDEDEF03F0000E0C6EEDEF03F040
:0A07D600FF0E0C6E0250006E1200C0
:1007E00000C008F00B6A0C6A9E0E036E0A6A026A69
:0C07F000016A006A020E0C6E5DDC120053
:0A07FC009494CA840C0EBD12120082
:10080600CA80CA92F90ECB6E97DF166A5FDFF3DFF6
:10081600156A800E006E800E010A005C02E1000E71
:10082600155C20E215C016F051DF0D0E0B6EAF0EF3
:100836000C6EB60E0D6E0D2EFED70C2EFCD70B2EA3
:10084600FAD7000015C000F0C8DF000E046E000ED7
:10085600056E4C0E066E830E076E28DD71DF00C036
:0608660015F0D7D7FFD703
:020000040030CA
:0E000000000C1F1EFF8381FF0FC00FE00F409A
:00000001FF
