:100000000CEF01F00000000000EF00F00000000025
:0A0010000000000000000000F3D71C
:10001C000B6A0A6A096A00500402F4CF09F0F3CFA4
:10002C0008F001500502F4CF0BF0F3CF0AF00050AA
:10003C000502F3500926F4500A22E86A0B220150FB
:10004C000402F3500926F4500A22E86A0B2208C075
:10005C0000F009C001F00AC002F00BC003F012005E
:10006C000134083609360450085E0550D8A0053C0A
:10007C00095E003601360F0E0C6E01340836093657
:10008C00045000A006D0085E0550D8A0053C095EBF
:10009C0005D008260550D8B0053C09260036013697
:1000AC000C2EEBD700B006D0045008260550D8B063
:0800BC00053C092600001200BA
:0A00C4009494CA840C0EBD121200C1
:1000CE000450000A08E10550000A05E1FF0E006E1B
:1000DE007F0E016E57D00D6A096A086A0150001032
:1000EE00D8B4000C015005180A6E0ABE0D1E0B6A1C
:1000FE0005AE05D0041E051E042AD8B4052A01AE8D
:10010E0005D0001E011E002AD8B4012A0150051088
:10011E000A6E0ABE10D0A3DF0BB020D00DAE000CBD
:10012E00001E011E002AD8B4012A081E091E082A24
:10013E00D8B4092A000C05AE0DD001BE07D001506F
:10014E00096E0050086E016A006AE8D7016A006AFB
:10015E00002A000C011E001E0B2ADDD7082AD8B477
:10016E00092A0450085CD8A4D9D70550095CD8A434
:10017E00D5D7096A086A002AD8B4012A01AECED7AB
:06018E000000FF0C12004E
:08019400BE6ABD98BD9A12007D
:10019C00CB50010F006E016A000E012215C004F055
:1001AC00000E056E35DF060E026E00C004F001C0B5
:1001BC0005F0025005E005320432059EFF0FFAD718
:1001CC00040E016E04C000F0015004E000360090F3
:1001DC00FF0FFBD7300E0014036E04C000F005C0F7
:1001EC0001F001320032019E01320032019E00C04A
:0C01FC00BEFF0F0EBD160350BD12120016
:100208000900F5CFE6FF0006FBE10106F9E112005F
:100218009494CA80CA92F90ECB6EB8DF156ABADF19
:100228004DDF010EC26E0E0EC16E950EC06EC282FB
:10023800C2A201D0FDD7C4CF01F0006AC350002686
:10024800000E0122040E046E000E056E3CDF00C095
:0802580015F0A0DFECD7FFD781
:020000040030CA
:0E000000000C1F1EFF8381FF0FC00FE00F409A
:00000001FF
